:020000040800F2
:100000000050002039020008D5010008DD01000879
:10001000E5010008ED010008F501000800000000FE
:10002000000000000000000000000000FD010008CA
:100030000902000800000000150200082102000863
:100040008102000881020008810200088102000884
:100050008102000881020008810200088102000874
:100060008102000881020008810200088102000864
:100070008102000881020008810200088102000854
:100080008102000881020008810200088102000844
:100090008102000881020008810200088102000834
:1000A0008102000881020008810200088102000824
:1000B0008102000881020008810200088102000814
:1000C0008102000881020008810200088102000804
:1000D00081020008810200088102000881020008F4
:1000E000810200088102000881020008000000006F
:1000F0000000000000000000000000000000000000
:0C01000000000000000000005FF808F1A3
:10010C0010B5054C237833B9044B13B10448AFF345
:10011C0000800123237010BD0400002000000000AB
:10012C00F002000808B5034B1BB103490348AFF3B9
:10013C00008008BD0000000008000020F00200084C
:10014C0080B483B000AF164B1B68154A23F47003C0
:10015C001360134B1B68124A43F400131360114BCA
:10016C001B68104A43F40053136000237B6002E0C9
:10017C007B6801337B607B680B4A9342F8DD094B4B
:10018C001B68084A23F40053136000233B6002E011
:10019C003B6801333B603B68034A9342F8DDDEE782
:1001AC00041001400C1001408FD0030080B500AF4B
:1001BC00044B1B68034A43F010031360FFF7C0FFA6
:1001CC0000BF80BD1810024080B400AF00BFFDE737
:1001DC0080B400AF00BFFDE780B400AF00BFFDE707
:1001EC0080B400AF00BFFDE780B400AF00BFFDE7F7
:1001FC0080B400AF00BFBD4680BC704780B400AF78
:10020C0000BFBD4680BC704780B400AF00BFBD4688
:10021C0080BC704780B500AF00F02EF800BF80BDE9
:10022C0080B400AF00BFBD4680BC7047FFF7F8FF3D
:10023C000B480C490C4A002302E0D458C450043338
:10024C00C4188C42F9D3094A094C002301E013600D
:10025C000432A242FBD300F021F8FFF7A7FF70474E
:10026C0000000020040000201003000804000020FF
:10027C0024000020FEE7000080B400AF054B1B7883
:10028C001A46054B1B681344034A136000BFBD4656
:10029C0080BC7047000000202000002070B50026B4
:1002AC000C4D0D4C641BA410A64209D100F01AF899
:1002BC0000260A4D0A4C641BA410A64205D170BD41
:1002CC0055F8043B98470136EEE755F8043B984740
:1002DC000136F2E7080300080803000808030008C9
:1002EC000C030008F8B500BFF8BC08BC9E4670476C
:0C02FC00F8B500BFF8BC08BC9E46704777
:0403080031010008B7
:04030C000D010008D7
:0403100001000000E8
:0400000508000239B4
:00000001FF
